:10000000B020002015120000111200001112000093
:1000100000000000000000000000000000000000E0
:1000200000000000000000000000000011120000AD
:10003000000000000000000011120000111200007A
:100040001112000011120000111200001112000024
:100050001112000011120000111200001112000014
:10006000111200006D0500007D0500008D050000E7
:100070009D050000AD050000BD0500001112000047
:1000800011120000111200001112000011120000E4
:10009000111200000000000000000000111200001A
:1000A00011120000111200001112000011120000C4
:1000B0000000000010B5064C2378002B07D1054B3B
:1000C000002B02D0044800E000BF0123237010BDC4
:1000D0000400002000000000B4160000084B10B51A
:1000E000002B03D00749084800E000BF0748036819
:1000F000002B00D110BD064B002BFBD09847F9E731
:100100000000000008000020B4160000B416000033
:1001100000000000704700000C4B1B68002B06D14C
:10012000EFF31083002B07D00022094B1A70074A07
:10013000136801331360704772B6BFF35F8F0022FC
:10014000044B1A700132024B1A70F0E720000020B5
:100150002400002000000020084B1A68013A1A60B1
:100160001B68002B09D1064B1B78002B05D0012200
:10017000044B1A70BFF35F8F62B6704720000020F7
:100180002400002000000020F0B5DE4657464E4611
:100190004546E0B587B08046049116001F00002256
:1001A000002300218B463F24012021000096019767
:1001B0005C4603944446059413E02024641A050029
:1001C000E540A84614E0009C019D121BAB415C4633
:1001D0004D462C43A346039C45462C4303940139CA
:1001E00025D3202464420C19E7D40500A540A84675
:1001F00004008C40A14692185B4114001D00059E2E
:100200004F463E40B446049E47463E40B246664690
:1002100057463E4303D00600264332002B00009C85
:10022000019D9D42DBD8CED19442D8D8CBE7039B29
:100230005846190007B03CBC90469946A246AB46CA
:10024000F0BD10B5490840230024814202D21800B5
:1002500010BD1C00091A631C9BB28842F9D94023C7
:10026000FF2CF4D814800023F1E70000F0B583B030
:100270000F00160008AA117804004C434022BC422B
:1002800002D9100003B0F0BD002B14D10200080009
:100290000021194CA04701003A0000230020174C10
:1002A000A04700220123121A8B41120C1B041A438F
:1002B00032800022E5E70022012BF9D10A00002359
:1002C00000210D4CA04702000B0000920193380062
:1002D00000210A4CA047050080239B014022984240
:1002E000CFD8790FF800009A019BA047EA00821A44
:1002F000D2B252032A43DBE78915000089010000CE
:1003000010B582B004000E4B1B78002B07D00029DB
:1003100005D10B4B5B78834210D01D200CE001A966
:100320000C701320074B98471320074B9847044B3A
:100330005C7001221A70002002B010BD0020FBE7A3
:1003400028000020B91000002D100000404B9842FA
:1003500031D00AD93F4B98424DD03F4B98425AD0AA
:100360003E4B984237D0002070473D4B98420CD00E
:100370003C4B9842F7D1012917D000295DD00229C2
:1003800015D0032915D00020EEE7012907D0002958
:1003900051D0022905D0032905D00020E4E73248D6
:1003A000E2E73248E0E73248DEE73248DCE732484D
:1003B000DAE73248D8E7012907D000293FD00229DF
:1003C00005D0032905D00020CEE72D48CCE72D48E5
:1003D000CAE72D48C8E7012907D0002931D00229F2
:1003E00005D0032905D00020BEE72848BCE72848EF
:1003F000BAE72848B8E7012907D0002923D0022905
:1004000005D0032905D00020AEE72348ACE72348F8
:10041000AAE72348A8E7012907D0002915D0022917
:1004200005D0032905D000209EE71E489CE71E4802
:100430009AE71E4898E71E4896E7032094E71D4870
:1004400092E71D4890E71D488EE71D488CE7C0469F
:100450000010004200180042001C0042001400423C
:1004600000080042000C00420300050003000600E3
:10047000030007000300010003001E0003001F002B
:100480000300090003000A0003000B000300110031
:10049000030012000300130003000D0003000E0010
:1004A00003000F00030017000300180003001900E9
:1004B00003000400030008000300100003000C0008
:1004C0000300160030B587B00B4B6A4632CB32C200
:1004D00032CB32C2009B83420BD001239A00694683
:1004E0005258824206D00133062BF7D1002007B0C4
:1004F00030BD0023D8B2FAE7241600007047000090
:10050000F0B50A4B1B78002B0CD1094F094E0A4D50
:100510000024DE515A1914600433182BF9D101223A
:10052000024B1A708000024BC150F0BD2A0000201F
:100530002C000020FD0400005C00002000B583B00A
:1005400009236A46137001335370013393700133EA
:10055000D3700133137101335371034B98476B46CA
:10056000185603B000BDC046C504000010B5024BCC
:100570001B680020984710BD2C00002010B5024BCE
:100580005B680120984710BD2C00002010B5024B7D
:100590009B680220984710BD2C00002010B5024B2C
:1005A000DB680320984710BD2C00002010B5024BDB
:1005B0001B690420984710BD2C00002010B5024B89
:1005C0005B690520984710BD2C000020F0B5DE4681
:1005D00057464E464546E0B591B005000C00160062
:1005E00029600800BC4B9847020023680520DB0700
:1005F00006D511B03CBC90469946A246AB46F0BD2C
:10060000236817309B07F4D4B449086A971C012368
:10061000BB4003430B620FA92D27F35D0B7014320F
:10062000D3B202931800AE4B98470298AD4B98474F
:10063000F05D0021AC4B9847F37A6B712423F35C97
:10064000AB712523F35CEB71F37E2B72337F6B72FE
:100650002B6898461800A04B9847143000220E23B0
:1006600006A98C4663441A80328A02928023DB01F9
:100670009A4200D19EE00FD9C023DB01029A9A4230
:1006800000D192E080231B029A4200D01FE1032395
:1006900006930023079308E080239B019A4200D031
:1006A00015E1102306930F3B079333680593F36816
:1006B000039373690493337E9B462623F35C9A4627
:1006C00073689946002B00D1A0E080235B05994513
:1006D00000D184E0737E002B02D0B37E4246937338
:1006E0002A68029FD369002BFCD10E3306AA9446D8
:1006F00063441B8842469381059B039A1343049AE3
:1007000013434A4613431F435B461B021F43534692
:100710005B071F432723F35C002B01D104331F43E6
:10072000737E9B02327F52021343727F1202134385
:100730002422B25C520413432522B25C12041343F8
:10074000B17AF27A114319433389FF2B00D181E04A
:1007500080225204174319432C23F35C002B03D14E
:10076000624B9B789B0701D580231F432A68D3697E
:10077000002BFCD1434659602A68D369002BFCD179
:1007800043461F600EAB80221A7000225A70DA7046
:100790009A70336B0A93736B0B93B36B0C93F36B7D
:1007A00002930D9300270AAE63E008230693073BEC
:1007B00007937AE733680593F368039373690493A7
:1007C000337E9B462623F35C9A4673689946002B3A
:1007D00018D080235B05994501D0002025E0272310
:1007E000F35C002B00D075E7336A1F00C0B2404BAA
:1007F000984701000E2206AB9C46624438003D4BF0
:10080000984712E008230693002307932723F35CFD
:10081000002B0ED0069B0093079B0E2206A98C4648
:100820006244B16A306A344FB847002800D0E0E62D
:1008300050E7336A1F00C0B22D4B98470100069B5A
:100840000093079B0E2206A88446624438002A4F74
:10085000B847EAE7F37E002B00D17DE78023DB0475
:100860001F4379E72000254B984707E00137042F05
:100870000DD0F9B2BB0098590028F3D0431CF5D035
:100880000EA90870000CC0B21D4B9847EEE700237C
:10089000EB602B616B61AB61EB612B62AB626B62F6
:1008A0000022EB85AB853033EA540133EA5401333F
:1008B000EA540133EA542868074B98470400114969
:1008C000114B9847A400114BE550002091E61023EE
:1008D000069300230793E8E6C504000000040040E7
:1008E000B91000002D10000001030000002000419D
:1008F000D5100000430200006D0200004D0300000F
:10090000B1110000E10A0000010500005C000020B8
:10091000C2791C23002A01D118007047C28D92B2FF
:10092000173B002AF8D10368DA69002AFCD119853F
:1009300002211A7E0A42FCD00023EDE7F0B5CE4634
:10094000474680B583B0050001911720002A04D1E5
:1009500003B00CBC90469946F0BDEB790530002BF6
:10096000F6D02C68E369002BFCD1013A93B299468A
:10097000002601271F4B984611E0731C9BB2019A79
:10098000915D6A79012A17D089B21E0028001A4B9E
:1009900098474B46013B9BB29946434513D0237E73
:1009A0003B42EAD1134B227E3A42E6D1012B19D0C9
:1009B000013B002BF7D1E0E70236B6B2019AD35CD7
:1009C0001B021943E2E7237E9B070DD4094B02214A
:1009D000227E0A420AD1012B0AD0013B002BF7D11B
:1009E0000020B5E71220B3E70020B1E70020AFE711
:1009F0001220ADE7FFFF000011090000F8B5060066
:100A00000C00150007680A4B9847F38D9BB2002B2A
:100A100003D0084B98470520F8BDF585054B98474E
:100A2000B46205223323F254323BBB750020F3E756
:100A30001901000059010000F8B504000D0016006E
:100A400007680F4B9847A38D9BB2002B03D00D4B2B
:100A500098470520F8BDA6850A4B98476562052290
:100A60003223E2542E3BBB75237A002B01D0202386
:100A7000BB75637A0020002BECD00823BB75E9E737
:100A80001901000059010000931C9B00C318596014
:100A90003021012393401A00435C134343547047B1
:100AA00010B51723002A01D1180010BDC4790533F1
:100AB000002CF9D0014B98470300F5E7FD09000031
:100AC00010B51723002A01D1180010BD8479053311
:100AD000002CF9D0014B98470300F5E7390A0000D4
:100AE000F8B58000624BC5582C68E369002BFCD137
:100AF000237EA67D1E403023EB5C3122AF5C1F407D
:100B0000F30722D5EB8D9BB2002B1CD0AA6A137879
:100B1000DBB2511CA962697901290ED09BB2DB05B9
:100B2000DB0D2385EB8D013B9BB2EB85002B0CD1BC
:100B3000013323750133A37507E0517809020B4394
:100B40000232AA62EBE701232375B30706D502231D
:100B5000237500223133EA54FB071AD4730765D595
:100B6000AB8D9BB2002B5FD0638BDBB21A0714D422
:100B70003F221340002B34D09A0711D51A2232237A
:100B8000EA54303B63837B0750D528006B69984754
:100B90004CE02800EB689847E0E737221340E9E78C
:100BA0005A0705D51E223223EA542E3B6383EAE717
:100BB000DA0705D513223223EA54313B6383E2E797
:100BC000DA0605D542223223EA54223B6383DAE770
:100BD00020221A42D7D021323223EA54123B6383B7
:100BE000D1E7238DDB05DB0DDAB2696A0A706A6A28
:100BF000511C69626979012910D0AB8D013B9BB210
:100C0000AB85002B12D10433237500222E33EA5416
:100C1000BB070BD528002B69984707E01B0A5370C8
:100C20006B6A01336B62E8E704232375F30604D58E
:100C3000102323752376FB060ED4B30604D5202398
:100C4000237523763B070BD4330704D5082323757C
:100C50002376BB0608D4F8BD2800EB699847ECE77B
:100C60002800AB699847EFE72B6A28009847F2E71E
:100C70005C00002010B5082803D880001B4B1B58CF
:100C80009F46002030E01A4B18692DE0194B1B6A73
:100C90009B059B0F1848D84026E0154B586923E068
:100CA000134B1B6800209B071ED512491022CB68EE
:100CB0001A42FCD00E4B1B685B0701D40F4813E0AF
:100CC00000200F4B98470A4B9B681B041B0C584392
:100CD0000AE05023074AD35C00205B0704D5044B8D
:100CE000D86801E08020000210BDC0463C1600001C
:100CF000440000200008004000127A00006CDC0272
:100D0000D510000070B50C490B6A047885784078DE
:100D10000122104080014026B34303432A40D20100
:100D200080208343134303222240120203480340DE
:100D300013430B6270BDC04600080040FFFCFFFF7C
:100D4000082803D88000254B1B589F46172044E0F5
:100D5000234A136A02210B43136200203DE0204A1C
:100D6000936902210B439361002036E01C4A138AE9
:100D700002210B43138200202FE0194A938A02219B
:100D80000B439382002028E016490B68022213438C
:100D90000B60134B9A8419000E32CB681A42FCD0B8
:100DA000104A91680E4BD96252689A6200229A8466
:100DB00019001032CB681A42FCD00A4B1B689BB258
:100DC000074A9384002008E0054944228B5C0220F6
:100DD00003438B54002000E00020704760160000A1
:100DE000000800404400002030B585B0C222D20087
:100DF0001A4B9A601A4A53681E218B435360012391
:100E00006A4613700024174DE0B26946A8470134C2
:100E1000252CF9D103A800244470012585700470A5
:100E2000114B98470620114B9847114B9847114B8F
:100E30001C725C729C72DC7201956B465C700623BE
:100E40006A46137014725472694600200A4B984720
:100E500000200A4B984705B030BDC046000800404E
:100E600000400041B9100000050D0000410D0000D8
:100E7000810E000000040040A50E00005D0F000080
:100E8000064A936908210B4393610122044B1A70AF
:100E900019000B781342FCD17047C0460004004093
:100EA000000C004070B5060004000D782D020543CB
:100EB0004B78002B02D08023DB021D434B7A002BA2
:100EC00002D080231B031D434868012810D9431E0C
:100ED000184234D1022830D90223002201325B00AB
:100EE0009842FBD812023243140080235B031D4357
:100EF0000B7A002B02D080239B031D43134A5378A7
:100F00005BB2002BFBDB124B9847124B1E700F4A53
:100F100053785BB2002BFBDB0C4B9C601A005378C0
:100F20005BB2002BFBDB094A5368802149020B406E
:100F30001D435560084B984770BD0022D2E704025C
:100F4000344380239B021D43D2E7C046000C00407F
:100F500019010000080C00405901000010B5040000
:100F60000B4A53785BB2002BFBDB0A4B98470A4BCA
:100F70001C70074A53785BB2002BFBDB044A5168B4
:100F800080235B020B435360044B984710BDC0465F
:100F9000000C004019010000040C00405901000041
:100FA00070B504001A4A53785BB2002BFBDB194B77
:100FB0009847194B1C70164A53785BB2002BFBDB29
:100FC000134E7068C004C00E144B98470500124BB6
:100FD0001C707668F602F60F114B1C700C4A5378A1
:100FE0005BB2002BFBDB0A4B9C682402240C0D4BEC
:100FF0009847002E07D1012C07D9210028000A4B61
:101000009847050001E00134E540280070BDC04666
:10101000000C004019010000040C0040750C000099
:10102000080C0040590100007114000010B50400C4
:10103000064B9847064B1C70064A53888021C9010D
:101040000B435380044B984710BDC0461901000064
:10105000020C0040000C00405901000010B50400D3
:101060000F4B98470F4B1C700F4A53881B05180FE6
:1010700053880E490B40538053880D490B405380D1
:1010800011008022D2014B881342FCD106494A88C4
:1010900003020648024013434B80064B984710BD9D
:1010A00019010000020C0040000C0040FFF0FFFF9F
:1010B000FFBFFFFF5901000010B50C782402044364
:1010C000024B9847A4B2024B5C8010BD5D1000003B
:1010D000000C004010B50400064B9847064B1C70EE
:1010E000064B5C882405240F054B98472000054BD0
:1010F000984710BD19010000020C0040000C004090
:1011000059010000A10F000030B5D378002B35D174
:101110001378802B29D01B06802464022343547843
:101120000225AC4306D19478002C20D18024A4025F
:10113000234341605478013C012C1CD90D042D0C33
:10114000A024E4052C431C4384620D0CD024240607
:101150002C431C438462D478002C22D15B031CD521
:101160009378012B1ED0416117E00023D7E7C024FC
:10117000E4022343DDE70D4C2340DFE741600C042C
:10118000240CA023DB05234383620C0CD0231B0615
:1011900023438362D378002B03D15378013B012B87
:1011A00002D930BD8161F8E78160FAE7FFFFFBFFFC
:1011B00010B50A00C1090023002904D14309DB014D
:1011C00005498C4663441F242040012181401800BA
:1011D000024B984710BDC046004400410911000071
:1011E0007047000010B5054B9847054B9847054BD5
:1011F0009847054B9847054B984710BDE90D0000EF
:1012000015010000E1110000E1110000E1110000F2
:10121000FEE70000F8B52A4A2A4B9A4211D01A007C
:10122000294B9A420DD2294A03339B1A9B0801335A
:101230009B000022234822498C58845004329A4251
:10124000FAD1234A234B9A420AD2D34321495B184D
:1012500003218B4304339B18002102C29342FCD12B
:101260001D4AFF211D4B8B439360FD3990235B008A
:101270001B4AD1501B4AD3780325AB430224234396
:10128000D370D3780C27BB4308263343D370164B57
:10129000987B30229043202210439873997BB94366
:1012A000314399739A7BAA4322439A730F4A536836
:1012B00080210B4353600E4B98470E4B9847FEE737
:1012C000B4160000000000200400002004000020EC
:1012D00004000020B000002000ED00E0000000004D
:1012E00000700041005000410048004100400041B2
:1012F000DD150000051400007047000010B5052240
:1013000002490348034B984710BDC046A80000207F
:1013100074000020A10A000030B591B08023DB05E5
:10132000009300230193FF2269460A8100228B72F9
:10133000CB72962189010891012124206C46215409
:101340000130215425316354013163540A9305312E
:101350006354013163540C930D9305932382E37618
:101360002276227762761323A3766277C4239B03C7
:101370000393104B0E93104B0F93104D104C6A4675
:1013800010492800A0470028F9D10C4D2C682000F6
:101390000D4B98471F2318401E3B83400B4A136098
:1013A0002A68D369002BFCD12368022213432360EF
:1013B00011B030BD030014000300150074000020BC
:1013C000CD050000001400423D05000000E100E0F2
:1013D00070B5084C002208492000084DA84701229A
:1013E00007492000A8473122A35C03210B43A354E3
:1013F00070BDC04674000020F9120000890A000088
:10140000FD12000070B584B0104B9847104B984700
:10141000104B98470122104B1A70BFF35F8F62B6D2
:1014200069460E4B6A4631CB31C2188810809B78D2
:1014300093700F220A480B4B98470B4E084D0B4CEC
:10144000052231002800A047FAE7C046E511000058
:1014500019130000D11300000000002084160000C2
:10146000740000203D090000A8000020C10A00000F
:10147000002243088B4274D303098B425FD3030AD3
:101480008B4244D3030B8B4228D3030C8B420DD3E6
:10149000FF22090212BA030C8B4202D31212090274
:1014A00065D0030B8B4219D300E0090AC30B8B42B2
:1014B00001D3CB03C01A5241830B8B4201D38B0360
:1014C000C01A5241430B8B4201D34B03C01A524105
:1014D000030B8B4201D30B03C01A5241C30A8B4248
:1014E00001D3CB02C01A5241830A8B4201D38B0233
:1014F000C01A5241430A8B4201D34B02C01A5241D7
:10150000030A8B4201D30B02C01A5241CDD2C30948
:101510008B4201D3CB01C01A524183098B4201D3C4
:101520008B01C01A524143098B4201D34B01C01AAF
:10153000524103098B4201D30B01C01A5241C30827
:101540008B4201D3CB00C01A524183088B4201D396
:101550008B00C01A524143088B4201D34B00C01A82
:101560005241411A00D20146524110467047FFE7EE
:1015700001B5002000F006F802BDC0460029F7D0F2
:1015800076E770477047C046F0B5CE46474615042B
:101590002D0C2E0080B50704140C3F0C9946030C4B
:1015A0007E435D43674363437F19340CE4199C46D3
:1015B000A54203D980235B029846C4444B4651435D
:1015C00043433604360C250C24046544A4195918E9
:1015D000491920000CBC90469946F0BD70B5002614
:1015E0000C4D0D4C641BA410A64209D1002600F03E
:1015F00051F80A4D0A4C641BA410A64205D170BDD7
:10160000B300EB5898470136EEE7B300EB58984724
:101610000136F2E7A0160000A0160000A016000098
:10162000A416000000080042000C00420010004216
:101630000014004200180042001C0042860C00000A
:10164000820C0000820C0000E40C0000E40C00009E
:101650009A0C00008C0C0000A00C0000D20C0000C2
:101660006C0D00004C0D00004C0D0000D80D00006A
:101670005E0D00007A0D0000500D0000880D000086
:10168000C80D000048656C6C6F20576F726C642148
:101690000D0A0000F8B5C046F8BC08BC9E4670476D
:1016A000DD000000F8B5C046F8BC08BC9E46704797
:0416B000B500000081
:0416B4000100000031
:0400000300001215D2
:00000001FF
