:10000000A0220020151200001112000011120000A1
:1000100000000000000000000000000000000000E0
:1000200000000000000000000000000011120000AD
:10003000000000000000000011120000111200007A
:100040001112000011120000111200001112000024
:100050001112000011120000111200001112000014
:10006000111200006D0500007D0500008D050000E7
:100070009D050000AD050000BD0500001112000047
:1000800011120000111200001112000011120000E4
:10009000111200000000000000000000111200001A
:1000A00011120000111200001112000011120000C4
:1000B0000000000010B5064C2378002B07D1054B3B
:1000C000002B02D0044800E000BF0123237010BDC4
:1000D000D40100200000000098310000084B10B54A
:1000E000002B03D00749084800E000BF0748036819
:1000F000002B00D110BD064B002BFBD09847F9E731
:1001000000000000D8010020983100009831000064
:1001100000000000704700000C4B1B68002B06D14C
:10012000EFF31083002B07D00022094B1A70074A07
:10013000136801331360704772B6BFF35F8F0022FC
:10014000044B1A700132024B1A70F0E7F0010020E4
:10015000F401002000000020084B1A68013A1A60E0
:100160001B68002B09D1064B1B78002B05D0012200
:10017000044B1A70BFF35F8F62B67047F001002026
:10018000F401002000000020F0B5DE4657464E4640
:100190004546E0B587B08046049116001F00002256
:1001A000002300218B463F24012021000096019767
:1001B0005C4603944446059413E02024641A050029
:1001C000E540A84614E0009C019D121BAB415C4633
:1001D0004D462C43A346039C45462C4303940139CA
:1001E00025D3202464420C19E7D40500A540A84675
:1001F00004008C40A14692185B4114001D00059E2E
:100200004F463E40B446049E47463E40B246664690
:1002100057463E4303D00600264332002B00009C85
:10022000019D9D42DBD8CED19442D8D8CBE7039B29
:100230005846190007B03CBC90469946A246AB46CA
:10024000F0BD10B5490840230024814202D21800B5
:1002500010BD1C00091A631C9BB28842F9D94023C7
:10026000FF2CF4D814800023F1E70000F0B583B030
:100270000F00160008AA117804004C434022BC422B
:1002800002D9100003B0F0BD002B14D10200080009
:100290000021194CA04701003A0000230020174C10
:1002A000A04700220123121A8B41120C1B041A438F
:1002B00032800022E5E70022012BF9D10A00002359
:1002C00000210D4CA04702000B0000920193380062
:1002D00000210A4CA047050080239B014022984240
:1002E000CFD8790FF800009A019BA047EA00821A44
:1002F000D2B252032A43DBE7E51600008901000071
:1003000010B582B004000E4B1B78002B07D00029DB
:1003100005D10B4B5B78834210D01D200CE001A966
:100320000C701320074B98471320074B9847044B3A
:100330005C7001221A70002002B010BD0020FBE7A3
:10034000F8010020B91000002D100000404B984229
:1003500031D00AD93F4B98424DD03F4B98425AD0AA
:100360003E4B984237D0002070473D4B98420CD00E
:100370003C4B9842F7D1012917D000295DD00229C2
:1003800015D0032915D00020EEE7012907D0002958
:1003900051D0022905D0032905D00020E4E73248D6
:1003A000E2E73248E0E73248DEE73248DCE732484D
:1003B000DAE73248D8E7012907D000293FD00229DF
:1003C00005D0032905D00020CEE72D48CCE72D48E5
:1003D000CAE72D48C8E7012907D0002931D00229F2
:1003E00005D0032905D00020BEE72848BCE72848EF
:1003F000BAE72848B8E7012907D0002923D0022905
:1004000005D0032905D00020AEE72348ACE72348F8
:10041000AAE72348A8E7012907D0002915D0022917
:1004200005D0032905D000209EE71E489CE71E4802
:100430009AE71E4898E71E4896E7032094E71D4870
:1004400092E71D4890E71D488EE71D488CE7C0469F
:100450000010004200180042001C0042001400423C
:1004600000080042000C00420300050003000600E3
:10047000030007000300010003001E0003001F002B
:100480000300090003000A0003000B000300110031
:10049000030012000300130003000D0003000E0010
:1004A00003000F00030017000300180003001900E9
:1004B00003000400030008000300100003000C0008
:1004C0000300160030B587B00B4B6A4632CB32C200
:1004D00032CB32C2009B83420BD001239A00694683
:1004E0005258824206D00133062BF7D1002007B0C4
:1004F00030BD0023D8B2FAE7582F00007047000043
:10050000F0B50A4B1B78002B0CD1094F094E0A4D50
:100510000024DE515A1914600433182BF9D101223A
:10052000024B1A708000024BC150F0BDFA0100204E
:10053000FC010020FD0400003802002000B583B05B
:1005400009236A46137001335370013393700133EA
:10055000D3700133137101335371034B98476B46CA
:10056000185603B000BDC046C504000010B5024BCC
:100570001B680020984710BDFC01002010B5024BFD
:100580005B680120984710BDFC01002010B5024BAC
:100590009B680220984710BDFC01002010B5024B5B
:1005A000DB680320984710BDFC01002010B5024B0A
:1005B0001B690420984710BDFC01002010B5024BB8
:1005C0005B690520984710BDFC010020F0B5DE46B0
:1005D00057464E464546E0B591B005000C00160062
:1005E00029600800BC4B9847020023680520DB0700
:1005F00006D511B03CBC90469946A246AB46F0BD2C
:10060000236817309B07F4D4B449086A971C012368
:10061000BB4003430B620FA92D27F35D0B7014320F
:10062000D3B202931800AE4B98470298AD4B98474F
:10063000F05D0021AC4B9847F37A6B712423F35C97
:10064000AB712523F35CEB71F37E2B72337F6B72FE
:100650002B6898461800A04B9847143000220E23B0
:1006600006A98C4663441A80328A02928023DB01F9
:100670009A4200D19EE00FD9C023DB01029A9A4230
:1006800000D192E080231B029A4200D01FE1032395
:1006900006930023079308E080239B019A4200D031
:1006A00015E1102306930F3B079333680593F36816
:1006B000039373690493337E9B462623F35C9A4627
:1006C00073689946002B00D1A0E080235B05994513
:1006D00000D184E0737E002B02D0B37E4246937338
:1006E0002A68029FD369002BFCD10E3306AA9446D8
:1006F00063441B8842469381059B039A1343049AE3
:1007000013434A4613431F435B461B021F43534692
:100710005B071F432723F35C002B01D104331F43E6
:10072000737E9B02327F52021343727F1202134385
:100730002422B25C520413432522B25C12041343F8
:10074000B17AF27A114319433389FF2B00D181E04A
:1007500080225204174319432C23F35C002B03D14E
:10076000624B9B789B0701D580231F432A68D3697E
:10077000002BFCD1434659602A68D369002BFCD179
:1007800043461F600EAB80221A7000225A70DA7046
:100790009A70336B0A93736B0B93B36B0C93F36B7D
:1007A00002930D9300270AAE63E008230693073BEC
:1007B00007937AE733680593F368039373690493A7
:1007C000337E9B462623F35C9A4673689946002B3A
:1007D00018D080235B05994501D0002025E0272310
:1007E000F35C002B00D075E7336A1F00C0B2404BAA
:1007F000984701000E2206AB9C46624438003D4BF0
:10080000984712E008230693002307932723F35CFD
:10081000002B0ED0069B0093079B0E2206A98C4648
:100820006244B16A306A344FB847002800D0E0E62D
:1008300050E7336A1F00C0B22D4B98470100069B5A
:100840000093079B0E2206A88446624438002A4F74
:10085000B847EAE7F37E002B00D17DE78023DB0475
:100860001F4379E72000254B984707E00137042F05
:100870000DD0F9B2BB0098590028F3D0431CF5D035
:100880000EA90870000CC0B21D4B9847EEE700237C
:10089000EB602B616B61AB61EB612B62AB626B62F6
:1008A0000022EB85AB853033EA540133EA5401333F
:1008B000EA540133EA542868074B98470400114969
:1008C000114B9847A400114BE550002091E61023EE
:1008D000069300230793E8E6C504000000040040E7
:1008E000B91000002D10000001030000002000419D
:1008F000D5100000430200006D0200004D0300000F
:10090000B1110000E10A00000105000038020020DA
:10091000C2791C23002A01D118007047C28D92B2FF
:10092000173B002AF8D10368DA69002AFCD119853F
:1009300002211A7E0A42FCD00023EDE782791C23B3
:10094000002A01D118007047828D92B2173B002A0D
:10095000F8D10268107E4007F4D5D369002BFCD192
:10096000538BDBB298061DD0980703D5022353831F
:100970001833E7E7580703D5042353831A33E1E715
:10098000D80703D5012353831233DBE7D80603D5F9
:10099000102353833233D5E79B0603D5202353839B
:1009A0002133CFE7138D0B800023CBE7F0B5CE4684
:1009B000474680B583B0050001911720002A04D175
:1009C00003B00CBC90469946F0BDEB790530002B86
:1009D000F6D02C68E369002BFCD1013A93B299461A
:1009E000002601271F4B984611E0731C9BB2019A09
:1009F000915D6A79012A17D089B21E0028001A4B2E
:100A000098474B46013B9BB29946434513D0237E02
:100A10003B42EAD1134B227E3A42E6D1012B19D058
:100A2000013B002BF7D1E0E70236B6B2019AD35C66
:100A30001B021943E2E7237E9B070DD4094B0221D9
:100A4000227E0A420AD1012B0AD0013B002BF7D1AA
:100A50000020B5E71220B3E70020B1E70020AFE7A0
:100A60001220ADE7FFFF000011090000F8B50600F5
:100A70000C00150007680A4B9847F38D9BB2002BBA
:100A800003D0084B98470520F8BDF585054B9847DE
:100A9000B46205223323F254323BBB750020F3E7E6
:100AA0001901000059010000931C9B00C3185960F4
:100AB0003021012393401A00435C13434354704791
:100AC00010B51723002A01D1180010BDC4790533D1
:100AD000002CF9D0014B98470300F5E76D0A0000A0
:100AE000F8B58000624BC5582C68E369002BFCD137
:100AF000237EA67D1E403023EB5C3122AF5C1F407D
:100B0000F30722D5EB8D9BB2002B1CD0AA6A137879
:100B1000DBB2511CA962697901290ED09BB2DB05B9
:100B2000DB0D2385EB8D013B9BB2EB85002B0CD1BC
:100B3000013323750133A37507E0517809020B4394
:100B40000232AA62EBE701232375B30706D502231D
:100B5000237500223133EA54FB071AD4730765D595
:100B6000AB8D9BB2002B5FD0638BDBB21A0714D422
:100B70003F221340002B34D09A0711D51A2232237A
:100B8000EA54303B63837B0750D528006B69984754
:100B90004CE02800EB689847E0E737221340E9E78C
:100BA0005A0705D51E223223EA542E3B6383EAE717
:100BB000DA0705D513223223EA54313B6383E2E797
:100BC000DA0605D542223223EA54223B6383DAE770
:100BD00020221A42D7D021323223EA54123B6383B7
:100BE000D1E7238DDB05DB0DDAB2696A0A706A6A28
:100BF000511C69626979012910D0AB8D013B9BB210
:100C0000AB85002B12D10433237500222E33EA5416
:100C1000BB070BD528002B69984707E01B0A5370C8
:100C20006B6A01336B62E8E704232375F30604D58E
:100C3000102323752376FB060ED4B30604D5202398
:100C4000237523763B070BD4330704D5082323757C
:100C50002376BB0608D4F8BD2800EB699847ECE77B
:100C60002800AB699847EFE72B6A28009847F2E71E
:100C70003802002010B5082803D880001B4B1B58F1
:100C80009F46002030E01A4B18692DE0194B1B6A73
:100C90009B059B0F1848D84026E0154B586923E068
:100CA000134B1B6800209B071ED512491022CB68EE
:100CB0001A42FCD00E4B1B685B0701D40F4813E0AF
:100CC00000200F4B98470A4B9B681B041B0C584392
:100CD0000AE05023074AD35C00205B0704D5044B8D
:100CE000D86801E08020000210BDC046702F0000CF
:100CF000140200200008004000127A00006CDC02A0
:100D0000D510000070B50C490B6A047885784078DE
:100D10000122104080014026B34303432A40D20100
:100D200080208343134303222240120203480340DE
:100D300013430B6270BDC04600080040FFFCFFFF7C
:100D4000082803D88000254B1B589F46172044E0F5
:100D5000234A136A02210B43136200203DE0204A1C
:100D6000936902210B439361002036E01C4A138AE9
:100D700002210B43138200202FE0194A938A02219B
:100D80000B439382002028E016490B68022213438C
:100D90000B60134B9A8419000E32CB681A42FCD0B8
:100DA000104A91680E4BD96252689A6200229A8466
:100DB00019001032CB681A42FCD00A4B1B689BB258
:100DC000074A9384002008E0054944228B5C0220F6
:100DD00003438B54002000E000207047942F000054
:100DE000000800401402002030B585B0C222D200B5
:100DF0001A4B9A601A4A53681E218B435360012391
:100E00006A4613700024174DE0B26946A8470134C2
:100E1000252CF9D103A800244470012585700470A5
:100E2000114B98470620114B9847114B9847114B8F
:100E30001C725C729C72DC7201956B465C700623BE
:100E40006A46137014725472694600200A4B984720
:100E500000200A4B984705B030BDC046000800404E
:100E600000400041B9100000050D0000410D0000D8
:100E7000810E000000040040A50E00005D0F000080
:100E8000064A936908210B4393610122044B1A70AF
:100E900019000B781342FCD17047C0460004004093
:100EA000000C004070B5060004000D782D020543CB
:100EB0004B78002B02D08023DB021D434B7A002BA2
:100EC00002D080231B031D434868012810D9431E0C
:100ED000184234D1022830D90223002201325B00AB
:100EE0009842FBD812023243140080235B031D4357
:100EF0000B7A002B02D080239B031D43134A5378A7
:100F00005BB2002BFBDB124B9847124B1E700F4A53
:100F100053785BB2002BFBDB0C4B9C601A005378C0
:100F20005BB2002BFBDB094A5368802149020B406E
:100F30001D435560084B984770BD0022D2E704025C
:100F4000344380239B021D43D2E7C046000C00407F
:100F500019010000080C00405901000010B5040000
:100F60000B4A53785BB2002BFBDB0A4B98470A4BCA
:100F70001C70074A53785BB2002BFBDB044A5168B4
:100F800080235B020B435360044B984710BDC0465F
:100F9000000C004019010000040C00405901000041
:100FA00070B504001A4A53785BB2002BFBDB194B77
:100FB0009847194B1C70164A53785BB2002BFBDB29
:100FC000134E7068C004C00E144B98470500124BB6
:100FD0001C707668F602F60F114B1C700C4A5378A1
:100FE0005BB2002BFBDB0A4B9C682402240C0D4BEC
:100FF0009847002E07D1012C07D9210028000A4B61
:101000009847050001E00134E540280070BDC04666
:10101000000C004019010000040C0040750C000099
:10102000080C004059010000CD15000010B5040067
:10103000064B9847064B1C70064A53888021C9010D
:101040000B435380044B984710BDC0461901000064
:10105000020C0040000C00405901000010B50400D3
:101060000F4B98470F4B1C700F4A53881B05180FE6
:1010700053880E490B40538053880D490B405380D1
:1010800011008022D2014B881342FCD106494A88C4
:1010900003020648024013434B80064B984710BD9D
:1010A00019010000020C0040000C0040FFF0FFFF9F
:1010B000FFBFFFFF5901000010B50C782402044364
:1010C000024B9847A4B2024B5C8010BD5D1000003B
:1010D000000C004010B50400064B9847064B1C70EE
:1010E000064B5C882405240F054B98472000054BD0
:1010F000984710BD19010000020C0040000C004090
:1011000059010000A10F000030B5D378002B35D174
:101110001378802B29D01B06802464022343547843
:101120000225AC4306D19478002C20D18024A4025F
:10113000234341605478013C012C1CD90D042D0C33
:10114000A024E4052C431C4384620D0CD024240607
:101150002C431C438462D478002C22D15B031CD521
:101160009378012B1ED0416117E00023D7E7C024FC
:10117000E4022343DDE70D4C2340DFE741600C042C
:10118000240CA023DB05234383620C0CD0231B0615
:1011900023438362D378002B03D15378013B012B87
:1011A00002D930BD8161F8E78160FAE7FFFFFBFFFC
:1011B00010B50A00C1090023002904D14309DB014D
:1011C00005498C4663441F242040012181401800BA
:1011D000024B984710BDC046004400410911000071
:1011E0007047000010B5054B9847054B9847054BD5
:1011F0009847054B9847054B984710BDE90D0000EF
:1012000015010000E1110000E1110000E1110000F2
:10121000FEE70000F8B52A4A2A4B9A4211D01A007C
:10122000294B9A420DD2294A03339B1A9B0801335A
:101230009B000022234822498C58845004329A4251
:10124000FAD1234A234B9A420AD2D34321495B184D
:1012500003218B4304339B18002102C29342FCD12B
:101260001D4AFF211D4B8B439360FD3990235B008A
:101270001B4AD1501B4AD3780325AB430224234396
:10128000D370D3780C27BB4308263343D370164B57
:10129000987B30229043202210439873997BB94366
:1012A000314399739A7BAA4322439A730F4A536836
:1012B00080210B4353600E4B98470E4B9847FEE737
:1012C0009831000000000020D4010020040000201C
:1012D000D40100209C02002000ED00E0000000008E
:1012E00000700041005000410048004100400041B2
:1012F0003917000051150000F0B5C64600B50C00C6
:10130000904600280FD1002A11DD8F18094E0A4D92
:10131000306821002B6898470134BC42F8D1404620
:1013200004BC9046F0BD01235B429846F7E7804637
:10133000F5E7C0465802002050020020F0B5C6462E
:1013400000B50E0015000138022810D8002A11D06F
:1013500000240C4B98460C4F43461868315D3B689F
:101360009847002808DB0134A542F5D106E00124A6
:10137000644203E0140001E001246442200004BC44
:101380009046F0BD58020020540200200300064A97
:101390001268002A04D0044A1068C318136070470A
:1013A0000249014A1160F6E72C020020A022002029
:1013B00001204042704780239B014B600020704712
:1013C00001207047002070477047000010B50522CB
:1013D00002490348034B984710BDC04690020020C5
:1013E0005C020020C10A000070B582B005000E004A
:1013F00000226B46DA80064C6B46991D2800A047F8
:101400000028F9D16B4606331B88337002B070BDDB
:101410003D09000070B505008CB2034E2100280084
:10142000B0470028FAD170BD11090000F0B591B0A5
:101430008023DB05009300230193FF2269460A8184
:1014400000228B72CB7296218901089101242421FC
:1014500068464454013144540131435401314354EA
:101460000A9305314354013143540C930D93059372
:101470000382C3760276027742761323837642771D
:10148000C4239B030393174B0E93174B0F93174DD6
:10149000174B1D60174A184B1A60184A184B1A60F0
:1014A0006A4618492800184B9847184F3B689868B7
:1014B0000021174EB0473B6858680021B0472E689E
:1014C0003000144B98471F2318408440124B1C6077
:1014D0002A68D369002BFCD133680222134333609E
:1014E00011B0F0BD03001400030015005C020020E1
:1014F000580200201514000054020020E9130000D7
:101500005002002000140042CD050000040000201D
:10151000991800003D05000000E100E070B5084C9E
:10152000002208492000084DA84701220749200051
:10153000A8473122A35C03210B43A35470BDC046CE
:101540005C020020C9130000A90A0000CD130000AE
:1015500070B586B0124B9847124B9847124B98477C
:101560000122124B1A70BFF35F8F62B602A9104BB3
:101570000A0031CB31C2188810809B7893700F22FB
:101580000C480D4B98470D480D4B98470D4E0E4D8E
:101590000B4C01A93000A84701A8A047F9E7C046B5
:1015A000E51100002D1400001D15000000000020B2
:1015B000CC2F00005C020020AD090000B82F000015
:1015C00051180000C82F00006518000000224308D1
:1015D0008B4274D303098B425FD3030A8B4244D3FB
:1015E000030B8B4228D3030C8B420DD3FF2209023D
:1015F00012BA030C8B4202D31212090265D0030BFC
:101600008B4219D300E0090AC30B8B4201D3CB03F1
:10161000C01A5241830B8B4201D38B03C01A524133
:10162000430B8B4201D34B03C01A5241030B8B4235
:1016300001D30B03C01A5241C30A8B4201D3CB0220
:10164000C01A5241830A8B4201D38B02C01A524105
:10165000430A8B4201D34B02C01A5241030A8B4208
:1016600001D30B02C01A5241CDD2C3098B4201D320
:10167000CB01C01A524183098B4201D38B01C01A9E
:10168000524143098B4201D34B01C01A5241030915
:101690008B4201D30B01C01A5241C3088B4201D3C4
:1016A000CB00C01A524183088B4201D38B00C01A71
:1016B000524143088B4201D34B00C01A5241411A98
:1016C00000D20146524110467047FFE701B50020A5
:1016D00000F006F802BDC0460029F7D076E7704753
:1016E0007047C046F0B5CE46474615042D0C2E0077
:1016F00080B50704140C3F0C9946030C7E435D43F0
:10170000674363437F19340CE4199C46A54203D90F
:1017100080235B029846C4444B46514343433604FE
:10172000360C250C24046544A419591849192000C5
:101730000CBC90469946F0BD70B500260C4D0D4C82
:10174000641BA410A64209D1002601F015FD0A4D24
:101750000A4C641BA410A64205D170BDB300EB581F
:1017600098470136EEE7B300EB5898470136F2E7A9
:101770008431000084310000843100008831000091
:1017800003008218934200D1704719700133F9E7C2
:1017900070B505000E00002804D08369002B01D12C
:1017A00000F008FBAB69AC68002B02D1280000F008
:1017B00001FB244B9C420FD16C68A3891B0702D507
:1017C0002369002B20D12100280000F071F90028A6
:1017D0001AD00120404270BD1B4B9C4201D1AC6825
:1017E000EBE71A4B9C42E8D1EC68E6E7013B013697
:1017F000A360002B04DAA269934216DB0A2914D0F5
:1018000023685A1C226019703178A3680029EDD131
:10181000013BA360002B0FDA22000A31280000F000
:10182000F1F8431CD5D00A20D5E72200280000F0AB
:10183000E9F8431CE8D1CCE70A2023685A1C22604F
:101840001870C8E70030000020300000E02F0000D2
:1018500010B5034B01001868FFF79AFF10BDC04692
:10186000040000200FB40B4B13B51C68002C05D0EE
:10187000A369002B02D1200000F09CFA05AB049A6A
:1018800061682000019300F0EBFD16BC08BC04B0B9
:101890001847C046040000204A424A41802310B540
:1018A0005200DB0000F002F810BD0000F0B51D0092
:1018B0004F4B85B01E6804000F000092002E05D02B
:1018C000B369002B02D1300000F074FA494B9C42FE
:1018D00050D17468009B022B05D0012B00D984E005
:1018E000002D00DA81E02100300000F0E1F9616BA9
:1018F000002908D023004433994202D0300000F080
:1019000081FB002363630023A3616360A3891B063B
:1019100003D52169300000F075FBA389364A1340D6
:10192000A381009B022B5AD003AB02AA21003000F6
:1019300000F0F2FAA3891843A081002D24D1029D62
:10194000280000F055FB0195071E42D1029B019330
:10195000AB4239D1012040420223A2891343A38123
:101960000023A360230047332360236101236361C5
:1019700005B0F0BD214B9C4201D1B468AAE7204BD1
:101980009C42A7D1F468A5E7002FD9D0B369002BFA
:1019900002D1300000F00EFA009B012B03D1A38985
:1019A000009A1A43A2810820A389276027616561F4
:1019B000184018D0012018400023984211D06D42E1
:1019C000A360A5611800D3E7019800F011FB071E82
:1019D000C0D08023A289019D1343A381D6E70020B4
:1019E000BAE7A560C4E7A060C2E701204042BFE7B4
:1019F00004000020003000005CF3FFFF20300000F6
:101A0000E02F0000F8B505000E001400002804D0F7
:101A10008369002B01D100F0CDF9224B9C422DD1DE
:101A20006C68A369A360A3891B0731D52369002BC8
:101A30002ED023682269F7B2981A6369F6B29842E9
:101A400005DB2100280000F033F9002826D1A36827
:101A50000130013BA36023685A1C22601F70636938
:101A6000984204D0A389DB071AD50A2E18D1210089
:101A7000280000F01DF9002812D00FE00A4B9C420C
:101A800001D1AC68CDE7094B9C42CAD1EC68C8E7EC
:101A90002100280000F00CF80028CAD00126764268
:101AA0003000F8BD0030000020300000E02F0000C2
:101AB000364B70B51D6806000C00002D05D0AB69D3
:101AC000002B02D1280000F075F9314B9C420FD158
:101AD0006C680C23E25E93B219072DD4D90611D499
:101AE00009230120336037331343A381404270BD83
:101AF000284B9C4201D1AC68EBE7274B9C42E8D1D4
:101B0000EC68E6E75B0713D5616B002908D023007A
:101B10004433994202D0300000F074FA002363632A
:101B20002422A3899343A381002363602369236054
:101B30000823A2891343A3812369002B0BD1A02181
:101B40008022A389890092000B40934203D0210098
:101B5000300000F009FA0123A289134011D00023BC
:101B6000A36063695B42A361002023698342BED105
:101B70000C23E25E1306BAD540231343A381013838
:101B8000B5E7920700D46369A360EDE70400002085
:101B90000030000020300000E02F0000F7B58A89F7
:101BA00005000C00130760D44B68002B04DC0B6CA1
:101BB000002B01DC0020FEBDE76A002FFAD00023D5
:101BC0002E682B6080235B011A4034D0606DA3899E
:101BD0005B0706D56368C01A636B002B01D0236CCA
:101BE000C01A0200216A00232800E76AB847A189C9
:101BF000431C06D12B681D2B31D82C4ADA40D30761
:101C00002DD50023636023692360CB0405D5431CD5
:101C100002D12B68002B00D16065616B2E6000291A
:101C2000C8D023004433994202D0280000F0EAF9DA
:101C300000206063BFE70123216A2800B847431CE6
:101C4000C5D12B68002BC2D01D2B01D0162B01D182
:101C50002E60AFE74023A2891343A381ABE7402363
:101C60000B430120A3814042A5E70F69002FA1D0BB
:101C70000B680F60DB1B01930023920700D14B69B7
:101C8000A360019B002B00DC94E7019B3A00216AD2
:101C90002800A66AB047002803DC4023A28913432A
:101CA000DFE7019B3F181B1A0193EAE70100402080
:101CB0000B6970B505000C00002B01D1002070BD30
:101CC000002804D08369002B01D100F073F80B4B7E
:101CD0009C4209D16C680C22A35E002BEED021003F
:101CE0002800FFF75BFFEAE7054B9C4201D1AC6897
:101CF000F1E7044B9C42EED1EC68ECE700300000C9
:101D000020300000E02F000010B5011E05D1054B6A
:101D10000549186800F0DEF810BD044B1868FFF79D
:101D2000C7FFF9E7DC2F0000B11C00000400002011
:101D300010B5024900F0CEF810BDC046B11C00003D
:101D4000002310B504000360436083608181436613
:101D5000C281036143618361190008225C30FFF78F
:101D60000FFD054B24626362044BA362044BE362E4
:101D7000044B236310BDC0463929000061290000CF
:101D800099290000C529000070B568254A1E5543F1
:101D90000E002900743100F07FF9041E08D00021E4
:101DA0002A00016046600C30A0606832FFF7E8FC52
:101DB000200070BD836913B50400002B28D1836413
:101DC000C3640365134B144A1B68826201939842F3
:101DD00001D101238361200000F020F86060200021
:101DE00000F01CF8A060200000F018F80022E0606D
:101DF00004216068FFF7A4FF01220921A068FFF712
:101E00009FFF02221221E068FFF79AFF0123A361DE
:101E100013BDC046DC2F0000311D0000F8B51E4B7D
:101E200007001E68B369002B02D13000FFF7C2FF24
:101E30004836B4687368013B04D53368002B07D07B
:101E40003668F6E70C22A55E002D0DD06834F2E767
:101E500004213800FFF798FF30600028F0D10C23F0
:101E600004003B602000F8BD012320005B42E381B9
:101E70000233A38165662560A560656025616561A3
:101E8000A561082229005C30FFF77AFC6563A56331
:101E9000A564E564E6E7C046DC2F0000F7B54830EE
:101EA000040000260191002C01D13000FEBDA56880
:101EB0006768013F01D52468F5E7AB89012B07D995
:101EC0000E22AB5E013303D02800019B98470643E6
:101ED0006835EEE7F7B504000700002601914834A5
:101EE000002C01D13000FEBD6368A5680093009B03
:101EF000013B009301D52468F2E7AB89012B08D997
:101F00000E22AB5E013304D029003800019B9847B4
:101F100006436835EBE7000070B50E001D000E2388
:101F2000C95E90B01400002907DA00232B60B38942
:101F30001B0611D48023DB000FE001AA00F04CFF48
:101F40000028F2DBF022029B12021340054A9B1884
:101F50005A4253412B60EDE740230020236010B02C
:101F600070BDC04600E0FFFFF7B502268B89050073
:101F70000C00334206D02300473323602361012342
:101F80006361F7BD01AB6A46FFF7C6FF0099070022
:101F9000280000F081F8002808D10C22A35E9A05E1
:101FA000EFD4032293431E43A681E4E70F4BAB62B9
:101FB0008023A28920601343A381009B2061636179
:101FC000019B002B0DD00E23E15E280000F016FFD0
:101FD000002806D00322A38993431A000123134348
:101FE000A381A0893843A081CBE7C046311D000002
:101FF00010B5034B0100186800F04EF810BDC04644
:102000000400002070B50500002910D00C1F2368C3
:10201000002B00DAE418280000F04EFF1D4A136878
:10202000002B05D163601460280000F046FF70BDEE
:10203000A34209D9216860188342F3D118685B680C
:1020400041182160EEE713005A68002A01D0A2422D
:10205000F9D919685818A0420BD1206809185818E6
:1020600019608242E0D110685268411819605A60C4
:10207000DAE7A04202D90C232B60D5E7216860186B
:10208000824203D1106852684118216062605C602E
:10209000CAE7C04630020020032370B5CD1C9D4323
:1020A000083506000C2D1ED20C25A9421DD8300083
:1020B00000F002FF254A14682100002919D1244CA0
:1020C0002368002B03D1300000F0F2FB20602900D0
:1020D000300000F0EDFB431C2CD10C2330003360AA
:1020E00000F0EBFE03E0002DDFDA0C23336000206C
:1020F00070BD0B685B1B1AD40B2B03D90B60CC187B
:10210000256003E08C420ED163681360300000F05C
:10211000D4FE200007220B30231D9043C31AE7D0C2
:102120005A42E250E4E74B6863600C00EEE70C00B3
:102130004968C2E70323C41C9C43A042E0D0211A93
:10214000300000F0B5FB431CDAD1C6E730020020B6
:1021500034020020F0B5BD4C8625A544039300232E
:102160004893499305AB4A93BE236D0000900C0041
:1021700002A8B7495B004019C027C15002AB5B19E8
:102180001500B4497F00D9512B78002B00D15BE1B9
:1021900000F04AFE08222B78C018019343781340C0
:1021A00041D1019A6E1C252A00D0A8E0479345939F
:1021B0006B782A2B02D11A3B4593AE1C35000A22BC
:1021C00029780B00303B092B48D9A34E032230005D
:1021D00000F05EFE002807D00123801B8340459A53
:1021E00001351343029245932B786E1C672B58D808
:1021F000652B00D3DDE0472B38D8452B00D3D8E042
:10220000002B00D11DE1252B79D003234B930733FD
:10221000469353E0499A0133019201324992626830
:102220002360013A62606368002B0BDD00F0FCFD67
:10223000082123681A78801842780A42EAD16E1C75
:102240003500A1E7862202AB52009B18DB59210022
:102250000098019398470028E8D0F0E7479B0135A4
:1022600002935343303B59184791A9E75B2B00D1A8
:1022700077E00FD8582BC8D1459A01928022019956
:1022800092000A4345921022469203226E2B14DDDF
:10229000013212E0632B00D171E0642BB5D10A2228
:1022A000F2E7702B52D022D86E2B00D16FE054D8B9
:1022B000692BAAD10023032246934B926368002B1B
:1022C00000DC78E0459B01935B0600D48BE04B9BE0
:1022D000022B00DD9DE003AB220045A9009800F031
:1022E000E7F8012800D1AFE00228A9D125E0752B3D
:1022F000D5D0782BC0D0732B87D102233DE0636803
:10230000002B0FDD236801991A78914200D09BE0E1
:10231000013362682360499B013A01930133626093
:1023200049938DE7862202AB52009B18DB592100AE
:102330000098029398470028E4D04898002800D0DD
:102340007BE00138A7239B009D44F0BD459A019294
:10235000202201990A4345928EE7082304224693DE
:10236000ABE7310005A800F0B5FA459B06000193E4
:102370004023019A1343459301234B939EE7459BCA
:1023800001934023019A134345930023F5E74599B0
:10239000CB0600D554E7039B499AC80704D5191DFD
:1023A00003911B681A804BE7191D03911B681A6083
:1023B00046E70523E1E7862202AB52009B18DB5972
:1023C0002100009801939847002800D17AE7B4E7EC
:1023D000499A0192013249926268013A6260002A88
:1023E0000BDD0133236000F01FFD082123681A78FC
:1023F000801842780A42EBD169E7862202AB52008C
:102400009B18DB5921000098019398470028EAD0D7
:1024100093E7042B06DC03AB220045A9009800F0EB
:10242000ABF85EE70D4B002B00D109E703AB2200B0
:1024300045A9009800E000BF53E7A3895B0600D4DC
:1024400080E7012040427DE748987BE764FDFFFF7D
:10245000A92C00009127000040300000000000007F
:10246000F8B504000D0016001F00002804D0836991
:10247000002B01D1FFF79EFC0A4B9D4207D16568F6
:102480003B00320029002000FFF764FEF8BD064B38
:102490009D4201D1A568F3E7044B9D42F0D1E56868
:1024A000EEE7C0460030000020300000E02F0000C2
:1024B000F7B515008A6801900C00002A06D18A69D8
:1024C000511E8A41012152420A43A2602268D2066B
:1024D00003D41A68111D196017680026A369002B20
:1024E0001CD0012B08D12B6862691B78D35C002BB0
:1024F00014D1002E30D106E0022B06D0002E2BD1B5
:10250000A369012B28D10120FEBD00F08DFC08221B
:102510002B681B78C01843781342EFD11022236830
:102520000136134203D12B681B783B7001372A68B0
:102530006B6801322A60A268013B013A6B60A260BD
:10254000002A09D0002BC9DCC0235B00E358290016
:10255000019898470028C1D010232268134006D163
:10256000E2680132E260A269002A00D03B70236970
:1025700000209E192661C7E7F0B50C008DB00293CC
:10258000774B0590160009AA23CB23C2754B0693FF
:10259000A369032B01D0744B0693AE220020A368DD
:1025A0005200591E0490914205D95E3BFF3B0493B3
:1025B0005E23FF33A36023001C330193D023002745
:1025C00022681B0113432360019B0393336809A80E
:1025D0001978BB000222185800F05AFC00282BD0B2
:1025E000012F5FD16368002B06D108332268636036
:1025F000F933FF33134323605C4B2268134023609D
:10260000A3685A1EA260002B16D0039B5D1C336882
:102610005A1C32601B78039A039513707368013B50
:102620007360002B08DCC0235B00E3583100059881
:102630000793984700287DD10137032FC6D16368DF
:10264000002B01D10A3363601021002763686069A1
:10265000C91A474BC91800F03DF9039DA368002B28
:1026600041D0326860691178405C00283BD0302945
:1026700028D1802021680001014223D0049A01372B
:10268000002A03D0013A01330492A3607368013B2E
:102690007360002B1EDD336801333360A368013B98
:1026A000A360DBE7022FABD1C02180232268C900E1
:1026B00011409B009942C2D1F13BFF3B6360F03374
:1026C00013439CE721682B4B0B40236013782B703E
:1026D0000135DBE7C0235B00E35831000598039325
:1026E00098470028DAD02368DB050ED5019B9D4270
:1026F00007D9BE23013D5B002978E35832000598D5
:102700009847019B01209D4227D0102223681A4040
:102710001CD12A70636801990598069EB047029BF8
:1027200022681B68910607D502991A1D0A601B686A
:10273000186008E00027D6E7D107F5D502991A1DE1
:102740000A601B681880E3680133E3600020019B86
:10275000ED1A2369EF19DF1927610DB0F0BDC046EE
:1027600044300000DD2A00000D2C0000FFFAFFFFBE
:1027700050300000FFF6FFFF092210B58389134097
:102780000022092B02D1FFF7BFFA0200100010BD92
:10279000F8B505000C00002804D08369002B01D196
:1027A000FFF708FB3D4B9C420AD16C680023636035
:1027B0000C23E25E93B299060CD50120404268E0FA
:1027C000374B9C4201D1AC68F0E7364B9C42EDD1CF
:1027D000EC68EBE759074AD4D90605D409232B60E6
:1027E00037331343A381E8E7082633420AD0210098
:1027F0002800FFF75DFA0028DFD1A389A060B3436A
:10280000A381A0610423A2891343A3812369002B20
:1028100003D121002800FFF7A7FB0C23E75EBEB21F
:10282000B3070FD00123A3811F4B20491868FFF77E
:1028300035FB0923A7811E409E4203D121002800B9
:10284000FFF7ACF923692269236028006369216AD4
:10285000656AA847020060600020824219DCA189F5
:10286000824217D120230B43A381013811E0616B11
:102870000029CBD023004433994202D02800FFF72F
:10288000C1FB0020236C606363608342BED0E36BB6
:102890002360F8BD402360600B43A3E700300000D5
:1028A00020300000E02F0000DC2F0000792700001E
:1028B000002370B5064C050008002360FEF766FD96
:1028C000431C03D12368002B00D02B6070BDC04691
:1028D0009802002070B50B785E2B0DD04A1C0021A9
:1028E0000400451CFF3521700134A542FBD1002BAB
:1028F00006D1013A100070BD8A1C4B780121EFE728
:1029000001244C401100C4540D784A1C2D2D07D0D1
:102910005D2DEFD0002D01D10A00EBE72B00F1E790
:102920004E785D2EFAD0B342F8DC02310133C45444
:102930009E42FBDCE8E7000070B50C000E25495F05
:1029400000F0E2FA002803DB636D1B18636570BDBD
:10295000A389024A1340A381F9E7C046FFEFFFFFB6
:10296000F8B51F008B8905000C001600DB0505D5A6
:102970000E23C95E0022022300F064FAA389054AEF
:1029800028001340A38132000E23E15E3B0000F0DB
:10299000FDF9F8BDFFEFFFFF70B50C000E25495F94
:1029A00000F050FAA389421C03D1054A1340A381C9
:1029B00070BD802252011343A3816065F8E7C046D1
:1029C000FFEFFFFF10B50E23C95E00F0F3F910BD55
:1029D000F0B51F000E0087B00590039102920C988D
:1029E000347800F01DFA082200194378751C134052
:1029F0000CD12D2C0CD101332C780193B51C002F58
:102A00000CD0102F14D1302C0AD011E02E00E6E7A4
:102A100001932B2CF3D12C78B51CF0E7302C2FD15F
:102A200020222B789343582B51D110276C780235F4
:102A3000019B294A39009E183000FEF74DFE3000F8
:102A400004913900FEF7C2FD012100234942020032
:102A50008C46180021003039092913D80C00A742F0
:102A60001CDD591C09D06346824206D302D1049969
:102A7000A14202DB0123784320182C780135E9E7D5
:102A80000A27D5E721004139192901D8373CE6E763
:102A900021006139192901D8573CE0E75A1C08D1B7
:102AA000059A23331360029B3000002B0BD107B033
:102AB000F0BD019A002A00D04042029A002AF6D0C6
:102AC000039A002B00D06A1E029B1A60EFE73024A5
:102AD000002FADD10837ABE7FFFFFF7F13B5054CE3
:102AE0002468246A002C00D1034C0094FFF770FF87
:102AF00016BDC0460400002068000020F0B51F008D
:102B00000E0087B00590039101920C98347800F084
:102B100087F9082200194378751C13400CD12D2C1D
:102B20000CD101332C780293B51C002F0CD0102F40
:102B300014D1302C0AD011E02E00E6E702932B2CA2
:102B4000F3D12C78B51CF0E7302C2FD120222B7834
:102B50009343582B54D110276C780235012039004B
:102B60004042FEF733FD0600012039004042FEF7E7
:102B7000B3FD002304910121012218008C4652422A
:102B800021003039092913D80C00A7421EDD002B83
:102B90001ADB1300864206D302D10499A14202DB5C
:102BA0006346784320182C780135E9E70A27D5E7F2
:102BB00021004139192901D8373CE6E72100613964
:102BC000192903D8573CE0E71300ECE7002B09DA9A
:102BD00022230120059A40421360019B002B0BD158
:102BE00007B0F0BD029A002A00D04042019A002AA4
:102BF000F6D0039A002B00D06A1E019B1A60EFE703
:102C00003024002FAAD10837A8E7000013B5054CDF
:102C10002468246A002C00D1034C0094FFF76EFF57
:102C200016BDC04604000020680000200B00F7B568
:102C30004D6B44330C009D421CD18026F6003100C0
:102C4000FFF72AFA002802D101204042FEBD2300EE
:102C50006063A66346331A78104BC2542300453391
:102C60001A780F4BC2542A780E4BC254C0182060F9
:102C70000020EBE78E6B290073001A00019300F02F
:102C80001DF9051EE0D0871901003200380000F060
:102C90000AF9019B27606563A363E9E7FF0300006E
:102CA000FE030000FD030000F8B505000E0014004F
:102CB0004B1C03D1012676423000F8BD002804D019
:102CC0008369002B01D1FFF775F82D4B9C422DD164
:102CD0006C682022A38993431BB2A3819BB25A073D
:102CE00013D4DA06E6D508273B420AD02100280093
:102CF000FEF7DEFF0028DDD1A389A060BB43A381DE
:102D0000A0610423A2891343A381626BF7B26368B5
:102D1000F6B2002A1BD0A26B934211DA2368013B62
:102D200023601F70636801336360C5E7154B9C42E5
:102D300001D1AC68CDE7144B9C42CAD1EC68C8E71E
:102D400021002800FFF772FF0028E7D0B2E72169D1
:102D50002268002907D0914205D2511E0878864288
:102D600001D12160DFE7236423004433636303233D
:102D7000A36323004633E2631F7023600123D3E77C
:102D80000030000020300000E02F000070B505008A
:102D9000080011000022064C22601A00FEF7CEFA4D
:102DA000431C03D12368002B00D02B6070BDC046AC
:102DB00098020020002370B5064C0500080023602F
:102DC000FEF7F6FA431C03D12368002B00D02B60DA
:102DD00070BDC04698020020002370B5064C050067
:102DE000080011002360FEF7E6FA431C03D12368B4
:102DF000002B00D02B6070BD98020020002370B51E
:102E0000064C050008002360FEF7DAFA431C03D1E4
:102E10002368002B00D02B6070BDC04698020020B4
:102E2000EC30006870470000044B1B681B6A002BE5
:102E300000D1034BEC3318687047C04604000020F3
:102E40006800002070B50500080011000022064C43
:102E500022601A00FEF7B6FA431C03D12368002B48
:102E600000D02B6070BDC0469802002082B00029BF
:102E700000D101A9101E06D0002B06D013780B60DC
:102E80001078431E984102B0704702204042FAE792
:102E9000C9B28218904201D10020704703788B425A
:102EA000FBD00130F6E7002310B59A4200D110BDE7
:102EB000CC5CC4540133F8E770477047F8B507009D
:102EC0000D001600002905D11100FFF7E5F80400F8
:102ED0002000F8BD002A03D1FFF794F83400F7E78B
:102EE00000F032F82C008642F2D931003800FFF7AA
:102EF000D3F8041EECD029003200FFF7D4FF2900DC
:102F00003800FFF77FF8E3E770B50500080011000F
:102F10000022064C22601A00FEF7EEF9431C03D192
:102F20002368002B00D02B6070BDC04698020020A3
:102F30000B1E04D0FF2A04D98A2303608B3B1800A0
:102F400070470A700123FAE70B1F1B68181F002B3C
:102F500001DA0B58C018704700080042000C00420C
:102F6000001000420014004200180042001C004201
:102F7000860C0000820C0000820C0000E40C0000B3
:102F8000E40C00009A0C00008C0C0000A00C000067
:102F9000D20C00006C0D00004C0D00004C0D000028
:102FA000D80D00005E0D00007A0D0000500D0000ED
:102FB000880D0000C80D000048692066726F6D2002
:102FC0007072696E746621002573000048656C6C30
:102FD0006F20576F726C64210D0A000008000020FA
:102FE00000000000000000000000000000000000E1
:102FF00000000000000000000000000000000000D1
:1030000000000000000000000000000000000000C0
:1030100000000000000000000000000000000000B0
:1030200000000000000000000000000000000000A0
:103030000000000000000000000000000000000090
:10304000686C4C00623000006530000068300000A1
:10305000412D46612D6638393031323334353637BB
:103060005D002B2D003030007858004300504F5346
:103070004958002E00002020202020202020202839
:103080002828282820202020202020202020202020
:103090002020202020208810101010101010101058
:1030A0001010101010100404040404040404040498
:1030B0001010101010101041414141414101010117
:1030C00001010101010101010101010101010101F0
:1030D00001101010101010424242424242020202FD
:1030E00002020202020202020202020202020202C0
:1030F000021010101020000000000000000000006E
:1031000000000000000000000000000000000000BF
:1031100000000000000000000000000000000000AF
:10312000000000000000000000000000000000009F
:10313000000000000000000000000000000000008F
:10314000000000000000000000000000000000007F
:10315000000000000000000000000000000000006F
:10316000000000000000000000000000000000005F
:103170000000000000000000F8B5C046F8BC08BC24
:103180009E467047DD000000F8B5C046F8BC08BC9C
:083190009E467047B5000000E7
:1031980001000000080000200000000000300000CE
:1031A80020300000E02F00000000000000000000B8
:1031B8000000000000000000000000000000000007
:1031C80000000000000000000000000000000000F7
:1031D80000000000000000000000000000000000E7
:1031E80000000000000000000000000000000000D7
:1031F8000000000000000000430000000000000084
:1032080000000000000000000000000000000000B6
:103218000000000000000000430000000000000063
:103228000000000000000000000000000000000096
:103238000000000000000000430000000000000043
:103248000000000000000000000000000000000076
:103258000000000000000000430000000000000023
:103268000000000000000000000000000000000056
:103278000000000000000000430000000000000003
:103288000000000000000000000000000000000036
:1032980000000000000000004300000000000000E3
:1032A8000000000000000000000000000000000016
:1032B80000000000000000004300000000000000C3
:1032C80000000000000000000000000000000000F6
:1032D8000000000000000000312F00006D2E0000EB
:1032E80000000000753000007330000064300000FA
:1032F8006430000064300000643000006430000076
:103308006430000064300000643000006430000065
:10331800FFFFFFFFFFFFFFFFFFFFFFFFFFFF0000B3
:10332800010041534349490000000000000000002B
:103338000000000000000000000000000000000085
:10334800000041534349490000000000000000000C
:103358000000000000000000000000000000000065
:043368000000000061
:0400000300001215D2
:00000001FF
